:020000040800F2
:10000000681A002091710008F56F0008F76F00086A
:10001000F96F0008FB6F0008FD6F0008000000008A
:10002000000000000000000000000000FF6F00085A
:10003000017000080000000003700008057000084F
:10004000A1710008A5710008A971000819700008C5
:10005000AD710008B1710008B5710008B9710008F0
:10006000BD710008C1710008C5710008C9710008A0
:10007000CD710008D171000809700008D571000821
:10008000D9710008DD710008E1710008E571000810
:10009000E9710008ED710008F1710008F5710008C0
:1000A000F9710008FD71000801720008057200086E
:1000B000097200080D72000811720008157200081C
:1000C000197200081D7200082172000825720008CC
:1000D000297200082D72000831720008357200087C
:1000E000397200083D72000841720008457200082C
:1000F0001D70000821700008157000084972000882
:100100004D720008517200085572000859720008BB
:100110005D7200086172000865720008697200086B
:100120006D7200087172000875720008797200081B
:100130007D72000881720008857200082DE9F14F78
:10014000B0B0924604910DF142013A9A2B91994632
:100150004A7000200AE01AF8011B0498309A904770
:100160000028049000F06B860D98401C0D909AF8C2
:10017000000050B12528EED10021002207910892FD
:1001800009910A920B910C9204E00D9800F059BE6F
:1001900041F001011AF8010F2028F9D023280CD0D2
:1001A0002B2804D02D2805D0302809D00BE041F0B1
:1001B0000201EFE741F00401ECE741F00801E9E753
:1001C00041F01001E6E72A280FD1D9F8002052F8B3
:1001D000040BC9F8002000280F9003D540420F906F
:1001E00041F004010AF1010A14E00F92DFF8583CD3
:1001F0000AE00F98984205DA00EB800402EB440213
:10020000303A0F920AF1010A9AF80020A2F1300068
:100210000A28EED39AF800002E2803D04FF0FF32C0
:100220000E9229E01AF8010F2A2809D1D9F8000006
:1002300050F8042BC9F800000E920AF1010A1BE0E5
:100240002D280CBF0AF1010A002000220E92DFF8CF
:10025000F84B0BE040B90E9AA24205DA02EB820598
:1002600003EB4503303B0E930AF1010A9AF8003084
:10027000A3F130020A2AEDD3ADF840100FF6CC30CE
:100280009AF8001000F0F2FE08B11AF8010B8DF890
:1002900042009DF84200682805D19AF800006828BD
:1002A0000CD1622106E06C2804BF9AF800006C288B
:1002B00004D171218DF842100AF1010A12A80690AA
:1002C0001AF801BBBBF125012CD01C3900F0D781F5
:1002D000091F022940F2D381133900F0E284093961
:1002E00000F0CD81891E00F07785491E00F024853D
:1002F000491E022940F2C381091F00F01D85491FD4
:1003000000F03281491E00F0CC84491E00F0D880F4
:10031000C91E0DD0891E00F0C484C91E00F0C1841E
:1003200000F065BD25238DF84830012100F06ABD3D
:10033000D9F8000050F8044BC9F80000002C0594CF
:1003400040F0AB802B994878002800F0A1804FF056
:10035000FF340FF6003000F095FE201A40F06F8554
:1003600000F051BD01236A4602A9304600F042FE6A
:10037000002840F064856D1EF4D13096079D12AFC1
:1003800075B1309E17F8012B02A9304600F022FE0D
:10039000002801D46D1EF5D10028309640F04F851D
:1003A0000A9D3020002D8DF800000CDD309E0123C9
:1003B0006A4602A9304600F01DFE002840F03F8545
:1003C0006D1EF4D13096059F089D75B1309E17F8CB
:1003D000012B02A9304600F0FDFD002801D46D1E5E
:1003E000F5D10028309640F02A850B9D3020002D55
:1003F0008DF800000CDD309E01236A4602A93046CC
:1004000000F0F8FD002840F01A856D1EF4D13096FA
:1004100005980899099D471875B1309E17F8012B6A
:1004200002A9304600F0D6FD002801D46D1EF5D19A
:100430000028309640F003850C9D3020002D8DF86B
:1004400000000CDD309E01236A4602A9304600F010
:10045000D1FD002840F0F3846D1EF4D130969DF854
:10046000400041077FF583AE2020002C8DF800006E
:100470007FF77DAE309D01236A4602A9284600F031
:10048000B9FD002840F0DB84641EF4D130956EE69F
:100490000FF6C030059000F0B6BC0E9D002D04D5BF
:1004A000204600F00FFE044607E02A46204600F0F2
:1004B00025FE002814BF041B2C46089400F0A3BCA2
:1004C000D9F8001051F8040BC9F8001020F000040E
:1004D000002121F0FF3512ABCDE902450593DDE99E
:1004E000022306993C2413B90AB90E98A8B102F068
:1004F0000F053035641EEEB23A2E08DA120942EAD0
:1005000003721B090D5508BF002A02D105E02735EB
:10051000F4E705980D19A842E9D308190590C4F12C
:100520003C020E98089282420ADABDF84010821A04
:100530004FF6EF7001400A92ADF8401000F063BC36
:10054000002840F160849DF8400000F0140010285D
:1005500040F059840F9B07990A985B1A1B1A9A1A44
:10056000002A40F350849AE32B99487820B14FF049
:10057000FF340FF6B020EEE69DF84200622860D00E
:10058000682817D06A283FD06C2806D0712847D039
:1005900074282CD07A281DD062E0D9F8001051F8C8
:1005A000040BC9F80010002866D14FF0FF340FF695
:1005B0008C20D0E6D9F8001051F8040BC9F80010CF
:1005C00020B94FF0FF340FF67420C4E60D99018076
:1005D00000F019BCD9F8001051F8040BC9F800104C
:1005E000002849D14FF0FF340FF65020B3E6D9F878
:1005F000001051F8040BC9F8001000283CD14FF04E
:10060000FF340FF63820A6E6D9F8001051F8040B95
:10061000C9F8001080B94FF0FF340FF620209AE699
:10062000D9F8001051F8040BC9F8001020B94FF0A8
:10063000FF340FF608208EE60D9AD317C0E9002389
:10064000E1E3D9F8001051F8040BC9F8001020B903
:100650004FF0FF340FF6E4107DE60D990170D2E300
:10066000D9F8001051F8040BC9F8001020B94FF068
:10067000FF340FF6C8106EE60D990160C3E3D9F898
:100680000020D21D22F00702C9F80020D2E90001A3
:100690000832C9F80020CDE90201C80F02D007983E
:1006A0002D210AE0BDF84000810702D507982B21D3
:1006B00003E0C00705D50798202112AA1154401C59
:1006C000079012A80799DDE9024543184BF0200076
:1006D0006128059321AE0BD00E98002802D5062084
:1006E0000E9005E001BF4BF02000672801210E911C
:1006F000DDE9020148004015401C0A460DD10903FE
:100700000BD0ABF1610703201A2F089002D20FF62D
:1007100048110DE00FF644110AE070B912030CD134
:10072000ABF1610703201A2F08901CD30FF6341188
:100730000322184600F00EFD65E3DDE902016A467A
:1007400000F014FDCDE902014BF02000612811D129
:10075000059830210170821CBBF1610F05920CBF1E
:100760007821582102E00FF6F801E1E7417007987F
:10077000801C0790DDE9020120F0000231F0004307
:1007800008BF002A02D10025002445E14BF02008D3
:10079000B8F1610F40F095800E98002847BF2121E5
:1007A0000191401C0190019F7F1C20462946002298
:1007B0000023DDE9024500F011FD00998DF8842049
:1007C00038BF85F00045091F002F00910DF185000D
:1007D00034DD0646204629460022002300F018FD9D
:1007E0002BD21C2200F02EFD04460D4600F0C8FD61
:1007F000FF1F002F804609DD00F0DEFD02460B469C
:100800002046294600F0A0FE04460D46F01D0721B3
:10081000B8F1000F0CDD491E5EBF08F00F0200F8B2
:10082000012D4FEA2818F3D502E0002200F8012D2F
:10083000491EFAD5C61D002FCCDC30460DF18501CE
:10084000401A019905468842C8BF0D46002D0DF19A
:1008500085062FD4854206DA0DF18500415D082911
:10086000A8BF0F2000DA0020294621AA0A4400E090
:100870006D1E12F80139491E8342F9D00F2804D1A8
:100880000DF18500425C521C4254002904D50098A9
:10089000001D21AE6D1C0090681E0BD431180A7823
:1008A0003032D3B23A2BA4BF5A443A3A401E01F830
:1008B0000129F4D50E98002840F1AD80691E0E91F3
:1008C000A9E00099DFF8FC2647F29750414391FBDD
:1008D000F2F2009225F00045C2F10702002A04DD81
:1008E0002046294600F04AFB0BE052420020DFF888
:1008F000D81600F043FB02460B462046294600F07E
:1009000095FE0446B8F1660F0E9806BF009F0A37A1
:1009100006273F18142FC8BF142730208DF88400F5
:100920000D460DF1850000E03046002F35DD06460E
:100930002046294600F09EFF01460A4606F10803BC
:1009400004200A26B2FBF6F606EB860EA2EB4E0258
:10095000303203F8012C0A22B6FBF2F202EB820ECF
:10096000A6EB4E063036401E03F8026DE9D1083F73
:10097000002F03F10806D7DD084600F08DFF024680
:100980000B462046294600F0DFFD0022DFF83C360A
:1009900000F090FF04460D46CAE70DF18501401AAC
:1009A0000DF1850604E00099491E401E0091761C59
:1009B00031783029F7D0B8F1660F02D10099491C7F
:1009C00004E0B8F1650F0CBF012100210E9D4D1907
:1009D000A842B8BF451E002D1DD4854204DA705DC3
:1009E0003428C8BF392000DC30202946721E531835
:1009F00000E06D1E13F80149491E8442F9D03928E0
:100A000002D1705C401C7054002904D50098401C31
:100A100016466D1C0090009C01F022F8406A077891
:100A2000DDF8388028B2002802DC01250FF2386694
:100A30004BF02000662808BF641C16D0672846D1FA
:100A400020B210F1040F48DB404546DA9DF8400023
:100A5000641C010703D428B24045D8BF804620B2A9
:100A6000B8EB000848BF4FF000080FFA84FBBBF159
:100A7000000F00F3B5800898411C089130220599B9
:100A80000A54B8F1000F03DC9DF84000010704D5BB
:100A90000898411C089105990F5418EB0B0FB8BF2B
:100AA000C8F1000424B260420B90A0442AB29045E1
:100AB000B8BF4546059B08982DB209952A46314690
:100AC000184400F047FBA8EB05000C90D2E0BBF106
:100AD000610F17D14FF0700B19E028B2404504DACE
:100AE0009DF840100A0758BF8046B8F1010848BF7A
:100AF0004FF00008BBF1670F14BF4FF0450B4FF0EC
:100B0000650B04E0BBF1410F08BF4FF0500B089894
:100B1000411C0891B8F1000F059916F8012B0A54F1
:100B200003DC9DF8400001071AD50898411C089184
:100B3000B8F1000F05990F5412DD6D1E28B28045E3
:100B40000598089BB8BF45462AB23146184400F0C4
:100B500001FB08992DB269180891A8EB05000B90CC
:100B600005980899084421B2002980F800B003D400
:100B70002B224270821C04E02D2242700C46821C03
:100B8000644200212CAB20460AE004460A2094FB74
:100B9000F0F000EB8005A4EB450403F8014B491C81
:100BA00000B20028F1DC012906DC4BF020006528AA
:100BB00004BF302002F8010B00292CAB08D13020F3
:100BC00002F8010B06E0491E585C303002F8010BB8
:100BD0000029F8DC059908980844121A099249E09E
:100BE00028B221B288421CDA0598089B2AB2314605
:100BF000184400F0AFFA08992DB269180891ABEBD0
:100C00000500B8F1000F0B9003DC9DF840000207CF
:100C100004D5059847540999491C0991CDF83080AD
:100C200028E00598089B22B23146184400F092FA59
:100C300008982D1B5844B8F1000F089003DC9DF86C
:100C400040100A0703D5411C089105990F5428B29A
:100C500080450598089BB8BF45462AB206EB0B01B4
:100C6000184400F077FA08982DB228180890A8EBDD
:100C700005000B909DF8400000F01400102840F093
:100C8000C280079A08990B988A18099982180C98BB
:100C90008A1882180F98824280F2B580821A0A92CE
:100CA000B1E09DF84200622808D068280ED06A287A
:100CB00014D06C281FD0712810D01CE0D9F8001077
:100CC00051F8040BC9F80010C0B21AE0D9F80010AE
:100CD00051F8040BC9F8001080B212E0D9F80020D6
:100CE000D21D22F00702C9F80020D2E90001083223
:100CF000C9F8002006E0D9F8001051F8040BC9F833
:100D000000100021CDE902019DF8400001075AD5ED
:100D1000DDE90223002B08BF002A54D04BF020004D
:100D2000782850D1079812A930220A54401C431C3D
:100D3000079301F800B046E09DF84200622808D011
:100D400068280ED06A2814D06C281FD0712810D0C3
:100D50001CE0D9F8001051F8040BC9F8001040B29B
:100D60001AE0D9F8001051F8040BC9F8001000B2CD
:100D700012E0D9F80020D21D22F00702C9F80020A5
:100D8000D2E900010832C9F8002006E0D9F80010C5
:100D900051F8040BC9F80010C117CDE90201002970
:100DA00002D507982D210AE0BDF84000810702D541
:100DB00007982B2103E0C00705D50798202112AA28
:100DC0001154401C079012A807990144059102A8EC
:100DD000594600F04DF816E001200790D9F80000C0
:100DE00050F8041BC9F800008DF848100BE02521CD
:100DF0000122BBF1000F8DF84810079203D08DF847
:100E000049B0022107910F9A07980A990C9C121A6F
:100E10000898521A0B99121A0998521A121A9DF828
:100E20004000141B41073FF5A9AA2020002C8DF893
:100E300000007FF7A3AA309E2546FFF793BA4FF034
:100E4000FF3031B0BDE8F08FCBCCCC0C686A6C744D
:100E50007A4C00007072696E74665F733A2062614A
:100E60006420257320617267756D656E74000000E3
:100E70002DE9FC4304466F29256908BF082605D0E3
:100E800041F02000782814BF0A2610263C27D4E918
:100E90000023642918BF69299046994605D1002B83
:100EA00003D5D8F1000869EB4909B9F1000F08BF73
:100EB000B8F1000F0CD1206B50B9082E3AD194F83C
:100EC0003800010736D530203B2785F83B0031E05C
:100ED0008DF80010404649463246F31700F0C4FD35
:100EE0003032D0B27F1E3A2801970EDAEA554046DA
:100EF00049463246F31700F0B7FD80465FEA010924
:100F000008BFB8F1000F05D108E09DF800001218E5
:100F1000513AEBE7E068E9198842DBD3082E09D1A2
:100F200094F83800010705D5E85D302802D07F1E0F
:100F30003020E855C7F13C02A261E919E160206B5D
:100F4000824208DA821A22624FF6EF70218F014046
:100F50002187BDE8F38300280ED594F8380000F00F
:100F60001400102808D1636B6169206A5B1A1B1A90
:100F70009A1A002AC8BF2262BDE8F3832DE9D04344
:100F800006460F4614464FF00008DFF8449012E082
:100F9000E00707D542464B463046394600F08AFC0A
:100FA00006460F464046494642464B4600F082FC04
:100FB000641080468946002CEAD130463946BDE8A7
:100FC000D0830000A08601000000F03F84D7974145
:100FD0000000244010B503460C461146A06898470F
:100FE000A06020B1E06A401CE062002010BD4FF01C
:100FF000FF3010BDF8B505460E4617461C460020CA
:101000005CB117F8011BB068A847B06030B1F06A56
:10101000401CF0620020641EF3D1F2BD4FF0FF309F
:10102000F2BD00007072696E74665F733A20256EBF
:1010300020646973616C6C6F776564007072696EAF
:1010400074663A2062616420256E20617267756D56
:10105000656E7400000000006E616E004E414E002F
:10106000696E6600494E460030002E00C9B2027813
:101070008A421AB11CBF10F8012FF9E718BF0020EF
:101080007047000080B500B906A005490B681BB188
:1010900022220021984701E000F069FD222002BDD4
:1010A00054160020636F6E73747261696E742068E9
:1010B000616E646C65723A20626164206D65737361
:1010C0006167650000F10103810704D010F8011B7E
:1010D000820781B1FAD10268A2F10131914311F086
:1010E000803104BF50F8042FF6E709BAB1FA81F154
:1010F00000EBD100401CC01A70470000C9B2830742
:1011000006D0521E22D310F8013B9942F7D11FE0BE
:10111000083A13D302F1040241EA012141EA0141F4
:1011200050F8043B121F21BF4B40A3F1013C2CEAB5
:10113000030C1CF0803FF3D0C9B2001F083210F836
:10114000013B521E28BF91EA030FF8D818BF0120B7
:10115000401E70474AB1000011F8013B521E00F8D2
:10116000013B1CBF11F8013BF8E7704710B514466E
:1011700000F002F8226010BDC1F30A5343B14A00E7
:1011800012F5001F28D2A3F2FE32A1EB02517047E4
:1011900050EA410C20D001F0004C31EA0C01B1FAC8
:1011A00081F204BFB0FA80F3D2180B3AB2F12003F7
:1011B0002CBF00FA03F1914041EA0C013EBFC2F19D
:1011C000200C20FA0CF319439040524240F2FD33B8
:1011D000D21A01EB035170470022704741EA030C19
:1011E00050EA4C0C52EA0C0C4FF4001C09D307D007
:1011F0001CEB410F9CBF1CEB430F8B4208BF82428C
:1012000070471CEB430FFBD8994208BF90427047D0
:1012100041EA030C50EA4C0C52EA0C0C4FF4001C4F
:1012200009D307D01CEB410F9CBF1CEB430F994225
:1012300008BF904270471CEB410FFBD88B4208BFA0
:1012400082427047124254D440F2FF7C1CEA115390
:101250000FD0634531D09B1863453CBF01EB025171
:10126000704701F0004141EA0C510020AFF30080CB
:10127000704750EA410320D001F0004C91EA0C0184
:101280001CD0B1FA81F30B3B9A420DD9D21A994086
:1012900051EA0C01C3F1200C20FA0CFC6144984087
:1012A000531C40F2FF7CD7E7914041EA0C01C2F1A8
:1012B000200C20FA0CF3194390407047B0FA80F3E9
:1012C0001533202BE0D3202AEED3203A203B9A423C
:1012D00009D9D21A00FA03F141EA0C010020531C8B
:1012E00040F2FF7CB8E700FA02F141EA0C0100206D
:1012F0007047524240F2FF7C1CEA11530DD0634507
:10130000DBD0B2EB030C3CBFA1EB025170470CF1F8
:10131000010221EA035141F4801150EA410CCCD082
:1013200001F0004C352A27DC30B481EA0C01B2F11F
:10133000200309DAC2F12003044601FA03F5D04084
:101340002843D1409C400CE0C3F12002450020FA24
:1013500003F418BF44F0010421FA03F091400C4358
:10136000002174F1004550F1000051EB0C012442C2
:1013700030BC7FF47BAF70476146002076E7000009
:10138000C1F30A5340F21E42D31A0CDDCA0283F3A2
:10139000070342EA505242F00042DA4002EBE172A7
:1013A00082EAE17070476FEAE17203F2E13008B15E
:1013B00082F000407047000010F0004160B148BF6B
:1013C0004042B0FA80F29040D21CC2F5846241EAF9
:1013D000025202EBD021400570470000841A71EBE5
:1013E000030604D26E40001BB141121973414FF441
:1013F000001C1CEB410F34BF7CEB430683E00C0D5B
:10140000A4EB1356362E00F37C80012E45EAC3234D
:1014100041DC43EA525312BFD20292025B08240518
:1014200045EAC12141EA5051D2EBC020994125D46F
:1014300007D1B0FA80F610FA06F162D0002020360B
:1014400008E0B1FA81F6B140C6F1200220FA02F2BA
:101450001143B0404FEAF474B4EB465434F0010643
:101460004FEA74040AD8D6F50016760D04F000444D
:10147000F04061FA06F25040F1404840C00A40EAAC
:10148000415021F0004128BF5FEA500550F10000B3
:1014900044EBD12135E0DB0A45EAC121C90AB6F1A6
:1014A00020050EDD42EA0242120CC5F1200603FAC5
:1014B00006F6EB4042EA06056D42984161F10001F3
:1014C0000DE062FA06F5F240554063FA06FC82EA46
:1014D0000C02F3405A406D42904161EB030111F45C
:1014E000801F05D1641E620502D06D004041494154
:1014F00021F48011430875F1004350F1000041EBE5
:10150000045170BC70471CEB410F15D223F000430F
:1015100052EA43060BD04FEA4C0CBCEB410F04D807
:101520000C0D661E342EB7DDEBE7801A994150EAA8
:10153000410608BF0021E4E708BF1CEB430F28BFAA
:101540006FF00001DDE7000070B491EA030F4FF087
:1015500000457FF543AF6B40841A71EB030603D25D
:10156000001BB141121973414FF4001C1CEB410FD9
:1015700034BF7CEB430442E00C0DA4EB1356352E34
:101580004FDC45EAC323DB0A45EAC121C912B6F1A3
:1015900020050DDD63FA05F6EB4086EA03051242ED
:1015A00018BF45F00105C01851F100010CD213E03D
:1015B00062FA06F5F2405540F3415A40B340F34019
:1015C0005A408018594107D349085FEA30005FEA62
:1015D000350528BF45F0010501F58011420875F178
:1015E000004250F1000041EB04514E0016F5001F7F
:1015F00070BC38BF70470020090D090570471CEB0F
:10160000410F10D252EA43060BD0BCEB410F05D874
:101610000C0DAB43661E342EB6DD02E0AB438018E2
:10162000594170BC704770BC70470000F0B540F283
:10163000FF7581EA030C0CF0004C15EA11541DBF34
:1016400015EA1357AC42AF42E5E0BC41C1F31301C8
:10165000C3F31303801A994143F4801304D2641E28
:101660000018494180185941C90241EA5051B1FB63
:10167000F3F603FB1611A2FB0675D7EBC020A941B8
:1016800002D2761E80185941C90241EA5051B1FB7D
:10169000F3FE03FB1E11A2FB0E75D7EBC020A94180
:1016A00003D2AEF1010E80185941890241EA9051EE
:1016B000760546EA8E2EB1FBF3F603FB1611A2FB6C
:1016C0000675D7EB8020A94102D2761E80185941B9
:1016D000C90241EA50514EEA060EB1FBF3F603FB94
:1016E0001611A2FB0675D7EBC020A94102D2761EC7
:1016F00080185941C90241EA5051B1FBF3F703FB8D
:101700001711A2FB0735D3EBC020A94167F10007F1
:101710000CBF004247F0010766F3D5274FEA1E31A0
:10172000B80814F5806412DDBD0775F1004250EB76
:101730000E5051EB045111F5801F5CBF41EA0C01C2
:10174000F0BD4CF07F6141F0E0410020F0BDBD07ED
:101750006D0840EA0E5041F48011D4F10104B4F157
:1017600020060ADAC4F120060200E04001FA06F37E
:10177000E1401843B24015430EE0342C13DCC6F1AF
:10178000200445EA40056D0820FA06F2154321FAC7
:1017900006F0A1400D43002175F1004250F1000018
:1017A00051EB0C01F0BD00205FEA0C01F0BDCFB998
:1017B00092185B41B3FA83F704BFB2FA82F6BF19FD
:1017C0000B3FB7F120062FBF02FA06F3BB40C7F16B
:1017D000200622FA06F638BF3343BA401CB1E4199A
:1017E000641E33E77F4231F00041B1FA81F404BF57
:1017F000B0FA80F6A4190B3CB4F120062FBF00FA12
:1018000006F1A140C4F1200620FA06F638BF3143A4
:10181000A0403C1B1AE7AC421ABF05EA1357AF427F
:1018200012E050EA41061CBF52EA4306BFE750EA05
:101830004107304661461CBF41EA0551F0BD52EAFE
:10184000430C08BFC143F0BD00204FF4001616EB57
:10185000410F98BF16EB430F08BF16EB410F24BF93
:10186000C14305E016EB430F0CBF61464CEA05513E
:10187000F0BD0000400D40F21E4C40EAC120BCEB20
:10188000115C40F0004003D48CF30701C84070475E
:101890006FEAE1707047000050B1B0FA80F1884003
:1018A000C91CC1F58461090501EBD02140057047D1
:1018B0000146704730B540F2FF7C1CEA11541DBF51
:1018C0001CEA1355644565453FE0641981EA030C41
:1018D0006FF35F530CF0004C43F48013C90241F0E6
:1018E000004141EA505EC5021100A5FB020200283A
:1018F0004FF00000EEFB01204FF00001E3FB05215B
:1019000018BF42F00102401800214941E3FB0E01DB
:10191000A4F580640D0302D292184041494154F16C
:10192000010470DD450872F1004250F1000051EBF6
:101930000451A1F5801102D441EA0C0130BD40F2FE
:10194000FF7E4CEA0E51002030BD0CEA1355644571
:1019500018BF654581EA030C0CF0004C41D050EAF9
:10196000410E1CBF52EA430E02E06146002030BD2A
:1019700024422C441BD15FEA050EF6D0090302BFB6
:1019800001460020AEF1140EB1FA81F5AEEB05046C
:1019900001FA05FE0C35C5F1200100FA05F5C84035
:1019A0004EEA000E6FF35F5343F480139CE733F06D
:1019B0000043B3FA83F504BFB2FA82FE75440B3DCF
:1019C000641BB5F1200E2FBF02FA0EF3AB40C5F138
:1019D000200E22FA0EFE38BF43EA0E03AA40641C12
:1019E0007CE750EA410E14BF52EA430E6FF000014B
:1019F0004FF4001515EB430F8EBF194615EB410F41
:101A00009DE7B4D830BDD4F10104B4F120050FDA5C
:101A1000C4F12005520828BF42F0010210FA05FE69
:101A200001FA05F57244E2BFE0402843E1400FE0CF
:101A3000352C9ADCC5F1200452EA400220FA05F266
:101A400018BF42F0010231FA05F0A1400A4300211B
:101A500072F1004250F1000051EB0C0130BD00006A
:101A6000004870477C100020D3BBD9B1B2F5803F4D
:101A70005BD2022A1ED98C46B1FBF2F102FB11C3E4
:101A80001B0443EA1043B3FBF2FC02FB1C3380B29D
:101A900040EA0343B3FBF2F002FB103240EA0C4091
:101AA00000237047022A05D98446B0FBF2F002FBFE
:101AB00010C270474AB105D100F0010249085FEA3F
:101AC0003000704700220023704700F053B80B002D
:101AD0000200002100207047F7D300220023704746
:101AE000904271EB030CF2D370B5B1FA81F4B3FA02
:101AF00083F52C1BA340C4F1200532FA05F63343CD
:101B0000A2405FF00046E64002E05B085FEA320276
:101B1000841A71EB030524BF204629467641F4D38D
:101B200002000B003000002170BD70B5B1FA81F4E5
:101B3000B2FA82F5C4F120046419B4F12006DAD3B4
:101B4000B2405FF00044F440002502E052085FEA32
:101B50003303C61A71EB020E24BF3046714664414E
:101B60006D41F3D302000B002000290070BD01205D
:101B700000F002B87047000080B5AFF30080024A61
:101B800011001820ABBEFBE7260002004FF0B0406A
:101B9000006800F0F000B02888BFB0207047DFF880
:101BA000F8070068000100F0F00070472DE9F041EF
:101BB000040051D0207881064FF0B04537D5A86891
:101BC000E96810F00C0001F0030103D00C2808BFF5
:101BD000012943D12868810702D5E06900283BD05C
:101BE000FFF7D4FF616A88420CD2084600F088FBF8
:101BF000002831D12968606A21F0F001014300F02A
:101C00002CFA09E0286820F0F000014300F025FAE2
:101C1000606A00F075FBF8B900F04AFBDFF87C174A
:101C20000860DFF87C07006800F0EEFBA0B92078C0
:101C3000C1076BD5A868E96800F00C00082801F01E
:101C4000030103D00C2808BF032937D1286881037A
:101C50005CD56068002859D10120FCE1E069E8B159
:101C6000296841F0010100F0E4FA0646286880077F
:101C700006D400F0EBFB801B0328F7D30320EAE136
:101C80002868616A20F0F000084328606868216ACB
:101C900020F47F4040EA01206860C8E728684008D7
:101CA000400000F097FB064628684008C007BED5F4
:101CB00000F0CCFB801B0328F6D3DFE76068B0F5AB
:101CC000803F04D1296841F48031296003E028680D
:101CD00020F480302860606858B100F0B7FB0646F9
:101CE0002868800312D400F0B1FB801B6528F7D36D
:101CF000C4E700F0ABFB06462868400CC00705D5DA
:101D000000F0A4FB801B6528F6D3B7E72078810795
:101D100018D5A868E96800F00C00042801F0030158
:101D200003D00C2808BF02292BD12868410502D511
:101D3000E068002890D06868216920F0FE4040EA01
:101D4000016068602168DFF85C6611F0180F00F030
:101D50008B806069002877D0C806706858D58007E6
:101D600030D4716841F00101716000F06FFB0746EB
:101D70007068800726D400F069FBC01B0328F7D3E6
:101D80007CE7E06870B1296841F4807100F051FA95
:101D9000064628684005CED400F058FB801B032877
:101DA000F7D36BE7286820F4807000F013FB064639
:101DB0002868800AC007C5D500F048FB801B0328AF
:101DC000F6D35BE7706840F0040000F04FF9074677
:101DD0007068000705D400F039FBC01B0428F7D356
:101DE0004CE77068A16920F4706040EA01207060DF
:101DF00070684008400000F039F9074670684008F4
:101E0000C00731D500F022FBC01B0328F6D335E70D
:101E100040F0010000F02AF907467068800705D4F9
:101E200000F014FBC01B0328F7D327E7706820F0ED
:101E3000040070607068C008C00715D500F006FB8C
:101E4000C01B0428F6D319E7706820F0040000F0E6
:101E50000DF907467068C008C007C9D500F0F6FA4A
:101E6000C01B0428F6D309E7207841074BD5DFF8DB
:101E700038753868C1050ED400F0EEFA00F0E6FAC5
:101E800080463868C10506D400F0E0FAA0EB0800EF
:101E90000328F6D3F2E6A068012804D1306840F0A8
:101EA0000100306010E00528306806D140F00400E1
:101EB0003060316841F0010105E0400840003060C9
:101EC000316821F004013160A06841F2893760B1C6
:101ED00000F0BCFA80463068800714D400F0B6FAEF
:101EE000A0EB0800B842F6D3C8E600F0AFFA80468F
:101EF00030684008C00706D500F0A8FAA0EB08003B
:101F0000B842F5D3BAE62078410620D5A06A002869
:101F1000B0680DD040F0010000F084F90746B068C9
:101F2000800714D400F092FAC01B0328F7D3A5E66B
:101F30004008400000F076F90746B0684008C00746
:101F400005D500F083FAC01B0328F6D396E6E06AB5
:101F5000002800F07F80A968EA68022801F00C01DF
:101F60005CD1236B02F00300984202BF02F07000C4
:101F7000636B984213D1A36BC2F30620984202BF51
:101F800002F47810E36B984209D1236C02F0606090
:101F9000984202BF02F06042606C82423AD00C2943
:101FA0003DD0286841013FF557AE286820F0807089
:101FB00000F010FA06462868810105D500F046FABF
:101FC000801B0328F7D359E6E868DFF8E013226B9B
:101FD0000840616B1043A26B0843E16B40EA0220AA
:101FE000226C0843616C10430843E860286840F0A5
:101FF00080702860E96841F08051E96000F026FABD
:1020000004462868810125D400F020FA001B03282B
:10201000F7D333E6286881011CD4E7E70C293FF4A5
:102020001BAE286820F080702860E968DFF8800324
:1020300089088900E960E9680140E96000F006FA72
:1020400004462868810105D500F000FA001B03282A
:10205000F7D313E60020BDE8F08129606968206AA3
:1020600021F47F4141EA002169607047706000F00F
:10207000EDB92DE9F8430400884600F0AE80DFF8A2
:10208000345300F0CAF80CD200F0CFF8064600F046
:10209000C4F806D000F0DAF9801B0228F7D9032033
:1020A000B9E0207881074FF0B04611D5B268A0683A
:1020B00022F0F0020243B26000F0C8F90746B068AF
:1020C000C00305D400F0C2F9C01B0228F7D9E6E727
:1020D0002078DFF8C472810612D53A68606922F070
:1020E000F00202433A6000F0B1F98146386880039B
:1020F00006D400F0ABF9A0EB09000228F6D9CEE730
:102100002078410613D53868A1690009000140EA2A
:102110001110386000F09AF981463868C00306D47F
:1021200000F094F9A0EB09000228F6D9B7E720786F
:10213000410711D5B268E06822F4E0620243B26060
:1021400000F084F90746B068800305D400F07EF9FA
:10215000C01B0228F7D9A2E72078010711D5B06883
:10216000216920F4605040EAC10000F05BF80746A6
:10217000B068400305D400F069F9C01B0228F7D904
:102180008DE72078C1072AD56068022818D1316808
:10219000890322D5B268920840EA820000F042F832
:1021A0000746B068616800F00C00B0EB810F16D0F4
:1021B00000F04CF9C01B41F289318842F1D36EE73F
:1021C000032802D13168890103E00028316802D177
:1021D0008907DFD401E04905DCD401201BE0286831
:1021E00000F0070080450BD200F01FF8044600F015
:1021F00014F805D000F02AF9001B0228F7D94EE7A1
:1022000000F056F8DFF89411086000F041F9BDE8DD
:10221000F24300F0F9B8BDE8F283286800F0070047
:1022200040457047B06000F011B92968C90848EA14
:10223000C101296000F00AB938B54FF0B0445F4DD4
:10224000A16811F00C0106D1FFF7A0FCC0F3031048
:1022500055F8200032BD0429594A05D008295948AB
:1022600004D12168C90222D5104632BDE16801F0CF
:102270000301022904D0032904D12168C90207D52A
:10228000104605E0FFF782FCC0F3031055F820006C
:10229000E168E268E368C1F306214843C2F3021132
:1022A000491C5B0FB0FBF1F05B1CB0FBF3F032BDDF
:1022B00080B5FFF7C1FF4049FFE7434A0968C1F312
:1022C000031152F82110B0FBF1F002BD80B5FFF709
:1022D000EFFF00F010F8C1F3022106E080B5FFF730
:1022E000E7FF00F008F8C1F3C22112F8211001F055
:1022F0001F01C84002BD3049344A096870470000D8
:1023000070B52E49B1282EBFCC6AC0F3031051F826
:102310002040FFF744FC054600F0D4F82A49C5F3F5
:10232000031251F822102A4AB4FBF1F15FF00004C5
:10233000B1FBF2F1B0F5007F2FA220461FD100BF04
:1023400026A353F820508D4216D2401C0328F8D9FA
:10235000184D2868C00844EAC00000F03BF8064663
:10236000286800F00700A04213D000F06FF8801B2F
:102370000328F5D3032070BD52F82040E8E700BFE2
:102380001AA353F820508D42F6D2401C0328F8D3EC
:10239000DEE7002070BD0000080100587810002022
:1023A0007410002090000058000400588C80C11167
:1023B000FFFFFEEE0040005808000058346D000892
:1023C0000024F4000048E801F46C0008F8700008EC
:1023D00040420F00286000F039B8000012000000F1
:1023E000240000003600000040000000060000004D
:1023F0000C000000100000000000000001000000C0
:10240000020000000300000070B50F4E0446307853
:102410000025A8B1FFF74CFF32784FF47A71B1FB79
:10242000F2F2B0FBF2F000F0A7F848B9102C07D296
:10243000002221464FF0FF3000F066F8B46000E063
:102440000125284670BD00BF6C100020014840687F
:10245000704700BF6C1000200248016841F4807191
:102460000160704700040058134810B5016841F43A
:1024700080710160032000F03AF80020FFF7C4FFEC
:102480000024002814BF012400F0B2F8204610BD3B
:102490000A4880687047094800787047084805E096
:1024A0000748016841F0020101607047016841F08E
:1024B0000101016070470000004000586C100020CE
:1024C000042004E0DFF80800006800F4C0607047F2
:1024D000000400580901020002D43C4881547047AE
:1024E0003B4B02F00F021A4402F8041C7047394BB0
:1024F00019684FF6FF020002114000F4E060084343
:10250000354908431860704770B5324B1C68C4F3F6
:1025100002230124C3F10705052D2EBF0F2504FA60
:1025200005F56D1E1E1D072E34BF0023DB1E29403E
:10253000994004FA03F3BDE870405B1E1A40114352
:10254000C8E70000010007D4012200F01F01234B5F
:102550008A40400943F82020704701000BD4012233
:1025600000F01F011E4B8A40400943F82020BFF3B2
:102570004F8FBFF36F8F704710B5401EB0F1807F53
:1025800001D3012010BD174C60600F214FF0FF30C8
:10259000FFF7A0FF0021A16007202060002010BDF0
:1025A000010007D4012200F01F010F4B8A404009AF
:1025B00043F820207047010007D4012200F01F01DA
:1025C0000A4B8A40400943F82020704700E400E0AD
:1025D00018ED00E00CED00E00000FA0500E100E07D
:1025E00080E100E010E000E000E200E080E200E0D6
:1025F00080B54748016841F400210160002200686D
:1026000000F400200090002100982E20FFF77CFFAE
:10261000BDE802402E20FFF795BF10B594B00446E8
:102620005021684600F084F822683A498A4219D15C
:102630004FF400634FF4807100931091684600F0EE
:1026400091F808B100F01AFB3348816B41F4004166
:102650008163026842F480620260006800F4806076
:102660000090009814B010BD38B59AB004461421FB
:1026700001A800F05DF8502106A800F059F8206884
:102680002649884241D10122002106920C9106A8D8
:1026900000F068F808B100F0F1FA2148214D4169D5
:1026A00041F480414161416901F480410091009908
:1026B000026842F002020260C021006800F00200DD
:1026C0000090022200981848019102920121039182
:1026D000002207210591049201A900F0D1FA1348C4
:1026E00028600F21696000201022E8608021686165
:1026F000A861E8612862AA602961284600F09AFB77
:1027000008B100F0BBFAA567AC621BB030BD000099
:102710005000005800280040580000580038014080
:102720004C000058501400200004004844000240AF
:10273000002200F0EDBC0000DFF81C130A6803095A
:1027400003F47F2300019A4300F47F2000F080B956
:10275000DFF804231368010C23EA014343EA004332
:10276000136070472DE9F843054600242878DFF808
:10277000E8624106A0464FF0B04743D5286B70B1E0
:10278000B0F5800F06D0B0F5000F18BFB0F5400FC0
:102790002ED035E0F96841F48031F96029E03868DD
:1027A00020F080603860FFF751FE81463868C00E27
:1027B000C00707D5FFF74AFEA0EB09000228F5D9AC
:1027C000032415E000F02DF9A96820F4781000F03A
:1027D00037F981463868000106D4FFF737FEA0EBD1
:1027E00009000228F6D9EBE73869696908433861BE
:1027F0003CB93168286B21F440010143316001E0AC
:102800000124A0462868010531D5B06800F440785D
:10281000286C80452AD0FFF71FFEB8F1000FB16881
:1028200005D1286C21F440710143B1601EE0B0680D
:1028300040F48030B06021F44071B06820F4803002
:10284000B060286C0143B160B068C0070ED5FFF7D7
:10285000FDFD8046B068800708D4FFF7F7FDA0EBC8
:10286000080041F289318842F4D30324A046287835
:10287000C10705D53268A869920840EA8202326031
:102880002978880705D53168E86921F4406101435A
:1028900031602978C80644BFA86AFFF759FF287835
:1028A000810644BFE86AFFF753FF2878410744BF19
:1028B000286AFFF741FF2878010744BF686AFFF7DD
:1028C0003BFF2868C10532D53268686B22F0406250
:1028D00002433260696BB1F1006F00F09CF8686BE5
:1028E000B0F1806F23D100F0A5F804463868C00E1F
:1028F000C00707D5FFF7AAFD001B0228F6D94FF045
:10290000030814E000F08DF8E96820F0606000F042
:1029100097F804463868000105D4FFF797FD001BBF
:102920000228F7D9EBE738696969084338612868F4
:1029300081051CD5A86BB0F1804F18BFB0F1004FD6
:1029400000D020B9316821F04041084309E03168E6
:1029500021F04041316020F08050326822F0406226
:1029600010433060A86BB0F1C05F00F054F82868E5
:10297000410535D53268E86B22F04052024332609F
:10298000E96BB1F1005F03D1F86840F48030F86082
:10299000E86BB0F1805F23D100F04CF80446386852
:1029A000C00EC00707D5FFF751FD001B0228F6D95E
:1029B0004FF0030814E000F034F8296920F060407B
:1029C00000F03EF804463868000105D4FFF73EFDEC
:1029D000001B0228F7D9EBE73869696908433861B9
:1029E0002868C10405D5F268686C22F440420243AD
:1029F000F260296888040BD5796AE86C21F030010F
:102A000001437962796AA86C890840EA8101796298
:102A10004046BDE8F28303D1F86840F08070F8606A
:102A200070473869696820F4FE4040EA0120386147
:102A300038697047396821F080613960FFF706BD59
:102A400008433861386840F080603860FFF7FEBCAA
:102A50001043086070470000880000587C4900E07F
:102A60007C4981B00A6802430A6009680840009006
:102A7000009801B0704718B585B0FFF7F5FC00F07D
:102A800061FB00F05BF800F09DF814216846FFF749
:102A90004FFE0420FFF7E4FF0220FFF7E1FF0120D3
:102AA000FFF7DEFF0820FFF7DBFF6B4C002223213E
:102AB000204600F0ACF9102000F03AF8674800F02A
:102AC000DFF823210091012200210291039101925C
:102AD0006946204600F0D4F8032000F029F8604849
:102AE00000F0CEF80420FFF7B9FF0120FFF7B6FF92
:102AF000002200210E20FFF707FD0E20FFF722FD28
:102B000058485949016000220F2347F6FF7142607F
:102B10008360C16002618261C261426100F0CAFCEF
:102B200008B100F0ABF800F050FB00F06BFCFCE7E4
:102B300000210090019102916946704780B59AB0DA
:102B4000482108A8FFF7F4FD1C2101A8FFF7F0FDBC
:102B5000FFF782FC4548016821F0180101604FF43D
:102B600080334348026822F4C06242F4007202607B
:102B70000722006800F4C060009008A8009908923D
:102B800001214FF480720A910B9240210022099397
:102B90000C911392FFF70AF808B100F06FF86F205C
:102BA0000221019002910022039204920592069262
:102BB0000792012101A8FFF75CFA08B100F05EF866
:102BC0001BB000BD80B594B050216846FFF7B0FD42
:102BD0004FF480404FF44052119000210092129126
:102BE00013916846FFF7BEFD08B100F047F815B035
:102BF00000BD10B51F4C204820604FF4E1310C207F
:102C0000606100224FF40040E0616160A260E26018
:102C10002261A26122626262A262204600F0E8FCA8
:102C200008B100F02BF80021204601F053F808B15C
:102C300000F024F80021204601F057F808B172B6E0
:102C4000FEE7204601F028F808B172B6FEE710BD95
:102C5000480000584C000058000400480008004894
:102C6000000C00487C15002000280040900000580F
:102C700000040058AC1100200038014072B6FEE795
:102C80002DE9F04F0027644A644B4FF00F080546CA
:102C90000E4634E0624CA54214BF072404248C4045
:102CA000604944EA0E0441F82C40C1431C6801EA23
:102CB000040C7468E40248BF40EA0C0CC3F800C07E
:102CC0005C6801EA040C7468A40248BF40EA0C0C7A
:102CD000C3F804C0146801EA040C7468E40348BF34
:102CE00040EA0C0CC2F800C0546801EA040C716898
:102CF000890348BF40EA0C0CC2F804C07F1C31684D
:102D000031FA07F000F081800124BC4014EA010090
:102D1000F4D04FEA470C032101FA0CF16FEA010EDF
:102D2000716801F00309B9F1010F1CBF01F0030143
:102D3000022912D1A968D6F80C900EEA010109FA0D
:102D40000CF949EA0101A960696821EA0404716883
:102D5000C1F30011B9400C436C60B900347904F040
:102D60000304032C21D0EC68D6F808900EEA040482
:102D700009FA0CF949EA0404EC60347904F003041C
:102D8000022C12D1FC0805EB840401F01C09D4F8D4
:102D900020A008FA09FB2AEA0B0AD6F810B00BFAB1
:102DA00009F949EA0A09C4F820902C680EEA040ED1
:102DB000347904F0030404FA0CF444EA0E042C60A1
:102DC000746814F4403F99D0DFF858E04FEA970C4C
:102DD0005EF82C4001F00C0108FA01FE24EA0E0E08
:102DE000B5F1904F08BF00240ED00F4CA54208BF8C
:102DF000012409D00D4CA54208BF022404D00C4C7C
:102E0000A5427FF447AF032449E7BDE8F08F0AB13C
:102E1000816170478162704780080058000800583F
:102E20000010004808000140000400480008004865
:102E3000000C004838B5040001D1012032BD2168E2
:102E4000DFF8A422914204F1240500F046F80221A3
:102E5000697020680268A068E16823686FF30E1249
:102E6000024320690A4361690243A0690A43E16998
:102E70000243206A0A4302431A60204600F007F921
:102E8000A068B0F5804F04BF002161602079696AB5
:102E900000F03F0000F014F838B1052805D22046B4
:102EA00000F012F900F012F803E0002028636863D4
:102EB000A8630021A961012068702970002032BD3B
:102EC0000860A96AE86A486060687047296B00205A
:102ED0000860696BA86B486070470BD2DFF80C0282
:102EE00041181423B1FBF3F18900DFF804222962B1
:102EF000EA617047DFF8FC0141181422B1FBF2F1DE
:102F00008900DFF8F4012962E8617047F8B50446EA
:102F100004F1240600253078012801D10220F2BDF9
:102F2000012030707778012F2BD102207070B561AD
:102F3000206807687F087F000760204600F08BF854
:102F40002168F06820B10A6842F00E020A6008E0C9
:102F5000086820F0040008602068016841F00A0158
:102F60000160706A0168CA0301D500F00EF8306B89
:102F700008B100F00AF82068016841F00101016021
:102F800001E0357002252846F2BD016841F48071E8
:102F900001607047F8B500F124010423CA69146880
:102FA0000268156891F8206006F01C0603FA06F71F
:102FB0003C4210D06F070ED51468A50603D41468E0
:102FC00024F00404146000F03DF8C968002938D0EA
:102FD000BDE8F4400847022303FA06F73C4213D049
:102FE000AF0711D51468A50605D4146824F00A04A7
:102FF000146001224A7000F025F800220A708968E6
:10300000F9B1BDE8F4400847082303FA06F6344254
:1030100017D02B0715D5146824F00E041460012274
:1030200091F82030CC6903F01C039A4062600122C1
:103030008A614A7000220A70096911B1BDE8F44042
:103040000847F1BD91F82020CC6902F01C029340A2
:1030500063607047000070B5C56C046D6C60446DB2
:1030600014B1856DC46D6C60012490F84450066CF9
:1030700005F01C05AC40746004686360806810282B
:1030800002D1A260E16070BDA160E26070BD10B5C8
:10309000416C0268144B89089A4239BF174C04EB03
:1030A0008101174B03EB8101816402F0FF02083AB2
:1030B0001421B2FBF1F1012301F01F01114AC26496
:1030C00003FA01F1016510BD01790F4A0F4B8365C9
:1030D00001F03F0102EB81024265491E012201F02D
:1030E00003018A40C265704708040240F8FFFDBF33
:1030F00000000240F8FBFDBF00040240000802404F
:103100001C08024080080240FC08024040090240BE
:1031100000B500BF130096469446103928BFA0E8BA
:103120000C50FAD85FEA417C28BF0CC048BF40F879
:10313000042BC90728BF20F8022B48BF00F8012B39
:1031400000BD00001CB5A149A14C4FF4004008602F
:10315000606C40010ED5606CC0000BD4FFF77CF9A9
:10316000FFF77AF9206C40F480302064206C20F462
:1031700080302064206840F480102060216801F4D1
:10318000801100913F21009892484160416101689F
:1031900041F47C110160026942F47C120261016811
:1031A00041F03F010160026942F03F0202610020EC
:1031B00000F0EEFD40B180798749E164E26C22F4D1
:1031C0007C5242EA0022E26413BD10B58348844C6D
:1031D00088B001680160CA228248C2615321C1617E
:1031E000FF210268D208D2000260C1617E480268F5
:1031F00042F40042026000F0DFFD7C480168C9082B
:10320000C90041F0040101600020794900F00DFF80
:1032100001F02EF901F0AFF801F052F9754A0021E2
:10322000042001F0A1FA04F23C51009169460FF22A
:1032300031020FF23100019201F014FB04F25471DB
:10324000029104F5C96240F23C5103920591049445
:1032500002A801F0BDF901F031F908B010BD00007D
:103260007047000070B5054688B0696801F10B062B
:10327000684601F0B8FB604C9DF802309DF80120D3
:103280009DF800104FEA040001F0ECFB9DF80410DB
:103290000FF2941001F0E6FB9DF80C309DF80B2026
:1032A0009DF80A1067A001F0DDFB30884FF4124151
:1032B000401A0CD0401E3ED0401E4CD0801E57D02D
:1032C000401E5AD0401E5BD0401E60D063E00E21ED
:1032D00004A8FFF72DFA68680D300078F8B904F5F6
:1032E000CC7001F0BFFB01F0C3F80D217F224348F1
:1032F0008DF810108DF81220D0F8004065A0240C35
:10330000214601F0AFFBADF81C4004A801F064FBBE
:1033100001F0BCFB0021012000F053FD3BE001283F
:1033200006D104F5E47001F09DFB0020287032E026
:1033300004F5FA702DE0686800F10D0504F5807061
:10334000297801F08FFB2878002814BF04F5B270AB
:1033500004F596701DE004F1240001F083FBD6F81B
:103360000620D6F8021004F1500001F07BFB12E0B9
:10337000D6F8021004F1940006E000BF37A008E080
:10338000D6F8021004F1C80001F06CFB03E000BFA6
:1033900039A001F067FB08B070BD38B50446FFF7EF
:1033A00055F814F1010F054609D0FFF774F82418F9
:1033B00005E01348016821F00401016030BFFFF708
:1033C00045F8401BA042F4D331BD00001040005826
:1033D00050000058040C0058FECAFECA900800585D
:1033E00030000320082800400800005880040058DE
:1033F0007C150020A748000800620008002004E0B7
:1034000010ED00E001E0704700BF4FF0FF3001F029
:1034100045B90021042001F0B4B9022001F0D3B96C
:10342000022001F0D8B90000576972656C657373AA
:10343000204669726D77617265206275696C6420DF
:1034400025640A004655532076657273696F6E20B5
:1034500025642E25642E25640A0A0000534843493A
:103460005F5355425F4556545F4E564D5F454E443F
:103470005F57524954450A00534843495F535542E8
:103480005F4556545F4E564D5F454E445F45524131
:1034900053450A004442474D43555F4765745265A2
:1034A000766973696F6E49443D20256C78200A0A5D
:1034B0000000000038B5040049D094F8210028B974
:1034C000002184F820102046FFF7A7F800F04EF8FE
:1034D00053202168486200F052F8FF2510B100F037
:1034E0003FF834E02168DFF89C008A6802408A6077
:1034F00022689368606821690343A0690B43034312
:1035000093602068E168016120680169A26841EA6E
:10351000024101612068C16821F08001C16020681A
:10352000C16C89088900C1642268D36CE169606953
:103530000B430343D36421688868810609D400F0F3
:103540001CF830B100F00CF8002084F820000120B5
:1035500032BD20684562012184F82110002032BD6F
:1035600020684562042184F821107047022084F805
:103570002100CA21226851627047204604E020469B
:103580001BE00000BFFF8FFF38B504462068C1680C
:1035900021F0A001C160FEF759FF05462068C1680F
:1035A000880608D4FEF752FF401B40F2E9318842FA
:1035B000F4D3032032BD002032BD38B50446206864
:1035C000C1684A0612D44FF0FF31C160FEF73EFFDA
:1035D00005462068C168480608D4FEF737FF401B3F
:1035E00040F2E9318842F4D3032032BD002032BDDD
:1035F00038B5040009D004F18005696809B900F004
:103600001EF800F021F8012801D1012032BDA06A86
:1036100008B100F02AF800F00AF821F02A01FFE7CB
:10362000816000F01BF8BDE8324000F0E6B9206888
:10363000416821F490414160206881687047002012
:1036400028702046FFF710B82421696020680268BE
:10365000520852000260204600F064B820680168F9
:1036600041F00101016020467047204600F062B938
:1036700070B5044604F180051346686820283AD1E5
:1036800051B3180028D02878012834D001222A709C
:1036900004F154062165338073800020E860212105
:1036A0006960706AD0B1DFF87010C162DFF86C0039
:1036B000716A0863716ADFF8680048630020716A04
:1036C00088632068216D00F12802706AFFF71EFCF4
:1036D00020B100F01BFA6A60012070BD2168402013
:1036E000086200222A7000F008F841F0800100F022
:1036F0000FF8F8D170BD022070BD206800F10801FC
:1037000051E8001F00F108037047DFF80C02014088
:1037100043E8001000287047CB3B00080B3C000832
:10372000153C0008F8B50446DFF84C052268DFF8C0
:103730004CE51368A168DFF84875034020690B4326
:1037400061690343E0690B4303431360002551683B
:10375000E06821F4405101435160A369DFF824156A
:103760008A421CBF206A03439668DFF81C050640A6
:103770003343936069A6D36A606A1B0940EA031366
:10378000D3627245DFF804054FF4004339D13F6836
:1037900007F00307032F4DD8DFE807F0024643493F
:1037A0004FF0010CE169B1F5004F4FF6F07740F0B2
:1037B0008080BCF1010F09D0BCF1020F0AD0BCF12E
:1037C000040F71D0BCF1080F71D099E0FEF786FDAF
:1037D000002815D0626A616836F81230B0FBF3F049
:1037E0004A0802EB4002B2FBF1F080B2A0F11001F6
:1037F000B942EAD20740C0F3420007432068C760DD
:103800007FE08A4216D13F6817F4406723D0B7F5AE
:10381000806F09D0B7F5006F03D0B7F5406F06D0C1
:1038200008E04FF0020C07E04FF0040C04E04FF00A
:10383000080C01E04FF0100C8A42B3D1BCF1000F2C
:1038400009D0BCF1020F0AD0BCF1040F15D0BCF1B5
:10385000080F15D054E0FEF739FD002851D0616AF9
:1038600036F81120B0FBF2F6626802EB42018E429C
:1038700046D31303B34205D242E0FEF7DDFCECE78A
:103880001846ECE75008002110EB062051EB1661BA
:103890000023FEF7E9F8A0F54076DFF8F473BE42A6
:1038A0002ED22168C8602CE0FEF7C6FC90E71846CF
:1038B00090E7BCF1010F09D0BCF1020F09D0BCF1B7
:1038C000040F18D0BCF1080F18D019E0FEF706FD60
:1038D000B8B1626A36F812306168B0FBF3F000EB01
:1038E0005100B0FBF1F080B2A0F11001B94207D253
:1038F0002268D06005E0FEF79FFCE9E71846E8E79C
:10390000012504F1680001210023418001808360CA
:10391000C3602846F2BD0000FEFF7FEF01000200F9
:103920000400060008000A000C00100020004000FF
:103930008000000190F82810CA0706D50268536875
:10394000C16A23F400330B43536090F828108A07B0
:1039500006D502685368016B23F480330B43536030
:1039600090F828104A0706D502685368416B23F483
:1039700080230B43536090F828100A0706D502688D
:103980005368816B23F400430B43536090F8281075
:10399000CA0606D502689368C16B23F480530B43B3
:1039A000936090F828108A0606D502689368016C27
:1039B00023F400530B43936090F828104A0610D567
:1039C00002685368416C23F480130B435360436CCB
:1039D000B3F5801F05D15368816C23F4C0030B43FA
:1039E000536090F828100A0606D501684A68C06C32
:1039F00022F4002202434A607047F8B5044604F1FD
:103A000080050020E8606FF07E47FEF71FFD064648
:103A1000206801680A0708D50097334600224FF452
:103A20000011204600F017F860B9206801684A07C5
:103A30000AD50097334600224FF48001204600F05B
:103A40000AF808B10320F2BD20206860A8600020B9
:103A5000E0662870F2BD2DE9F041069C05460E4651
:103A600090461F462868C1693140B1420CBF012011
:103A70000020404529D114F1010FF3D0FEF7E6FCF8
:103A8000C01B844200D34CB900F028F800F031F894
:103A9000FCD100F01DF80021017014E028680168D5
:103AA0004A07DFD5C1690805DCD52A684FF40061F3
:103AB000116200F013F800F01CF8FCD100F008F8D7
:103AC000C16000220270032000E00020BDE8F08108
:103AD00005F180002021416081607047286850E82E
:103AE000001F024621F4D07142E800100028F5D1F1
:103AF0007047286800F1080151E8001F490800F1EB
:103B00000803490043E80010002870471020E860CF
:103B1000002129702022704710B500F008F8FCD170
:103B200000F00FF8FCD12021C0F8841010BD01680E
:103B300051E8002F0B4622F0C00243E80021002983
:103B40007047016801F1080252E8002F01F10804F2
:103B500022F4000244E800210029704710B500F06B
:103B600011F8FCD100F018F8FCD1C16E012902D186
:103B700000F021F8FCD12021C0F888100022C26694
:103B8000026710BD016851E8002F0B4622F49072C5
:103B900043E8002100297047016801F1080201F1A2
:103BA000080452E8002FDFF8EC100A4044E8002136
:103BB000002970470000026852E8002F036822F0D5
:103BC000100243E800210029704710B50146886AB9
:103BD00009680A68930614D40021A0F856100268F8
:103BE00002F1080151E8002F036803F1080422F0F4
:103BF000800244E800210029F1D100F033F8FCD123
:103C000010BDBDE8104001F0FCB9806A01F00ABAAD
:103C100000000000F8B5846A04F1840504F1560739
:103C200028686E6821688A68110606D5212804D1A3
:103C3000002038802046FFF76FFF21688868410622
:103C400006D5222E04D1002038812046FFF786FFBA
:103C5000A86840F01000A8602046BDE8F24001F0DE
:103C6000E2B90000016851E8002F0B4642F0400223
:103C700043E8002100297047F369FFCF0038014075
:103C80008800005800800040FFF4FF110024F40079
:103C900000FD0F00FEFFFFEF10B500F180010A7874
:103CA000012A01D1022010BD01220A7024234B6099
:103CB0000268136814686408640014600022426695
:103CC00023F000530068036020224A6000230B7039
:103CD000002010BD70B500F01FF801D1022070BDAA
:103CE00000F020F822F0604209E070B500F014F80E
:103CF00001D1022070BD00F015F822F0606211437E
:103D00008160204600F01CF8206806602021696070
:103D100000222A70002070BD044604F18005287836
:103D2000012870470120287024226A6020680668F4
:103D300002685208520002602068826870470000E2
:103D400030B5416E11B90121012214E0016800BFB4
:103D50000BA48A68D1F808100BA3520E02F00702D8
:103D6000490F655CA45C595C9A5CED00E40095FB2E
:103D7000F1F194FBF2F268304180028030BD000026
:103D80000101010307010000080402040801010108
:103D900020B501460648074D00E00838C2798A423E
:103DA00018BFA842F9D18A4218BF002020BD00BF29
:103DB000F873FF1F0070FF1F0D4800210160416074
:103DC000704710B500F007F85C6800F009F85C6017
:103DD00082F3108810BDEFF3108272B6044B704767
:103DE00019B1012902D10443704784437047000090
:103DF00010160020DFF840150A6892B200E0024673
:103E0000086880B28242FAD17047F0B5DFF82C35ED
:103E1000DFF82C551E78182402466243B0422A442B
:103E200004D118785870547D1C700FE0167D507DB9
:103E300092F815C005F115076643062807F806C075
:103E400004D0167D143514FB00F42E550120107398
:103E50001A78062A02BF00294FF0FF305860F0BDE3
:103E600010B5DFF8D844606810F1010F10D0FFF7EB
:103E7000C1FF6168DFF8CC2481422FBF63686168AD
:103E80005388CB1851781278181A4843D04000E074
:103E9000002080B210BD2DE9F84FDFF8A854DFF8FC
:103EA000A8B4D5F80880D8F80000DBF800104A055F
:103EB00000F098F9DFF88464DFF884A421F48061CD
:103EC00081604FF0180934780AF1080019FB04F1F9
:103ED0004758FFF7C5FF874202D20027012105E0BE
:103EE000A9884118B94203D2AF880021B17015E00A
:103EF00001223F1AB27011E00A590AF10803121A9E
:103F00001A5108E019FB04F40AF108010A59824227
:103F1000F2D200230B510AEB04014C7D062CF1D1A7
:103F2000B8B238B9FFF766FF70600320BDE8F24F02
:103F3000FEF736BB022802DA2878012800D07F1E5F
:103F4000D8F80000C1684A07FAD500F051F9DBF84B
:103F50000C00000CBFB247EA0047CBF80C70FFF72B
:103F600049FF7060A8680068816841F480618160E1
:103F7000AFF30080BDE8F18F2DE9F843EFF310882F
:103F800072B6DFF8C053DFF8B833A8680168CA22F8
:103F90004A625320486218208A6822F480628A604C
:103FA000DFF898231678374647431F44387B0228AA
:103FB00023D13C68D7F810909078D8B17A7B012A49
:103FC0000AD101213046FFF720FF88F31088796875
:103FD000304600F01AF904E088F31088304600F00B
:103FE000C7F8A86800F01BF831462246484601F0A1
:103FF0001BF80EE0FFF74FFF09E0C8684207FCD549
:1040000000F087F84FF40020DFF84013086088F3D1
:104010001088FF22A86801684A62BDE8F183006841
:10402000CA214162532242627047F8B5C54CA16073
:10403000CA2209684A625323C34A4B62156845F095
:1040400020051560136803F00703C3F10403237010
:1040500095682D0C05F07F056D1C6570EDB29268BA
:10406000C2F30E02521C628092B2521E6A43A2F543
:10407000A072DA404FF6FF739A422CBFA380A28051
:10408000B34A136843F400231360B24B1D6845F430
:1040900000251D6048BBA948012383704FF0FF3500
:1040A00045600023A64D00260C355FFA83FC1827D7
:1040B00017FB0CFC5B1CDFB205F80C60062FF4DB71
:1040C00006230370886820F48060886000F021F87F
:1040D0004FF40021D1600320FEF76DFAA06800685C
:1040E000816841F48041816005E0C868410544BFB2
:1040F0000320FEF755FAA1680A68FF2050620022EB
:1041000003210320FEF700FABDE8F2400320FEF78A
:1041100019BAC86800F0800060F49060C860704709
:104120002DE9F04104460025EFF3108672B61827FA
:10413000DFF80CC20CF10C0E07FB05F81EF80800A6
:1041400010B16D1C062DF5DB062D0CD06F430CEB6A
:1041500007000127077386F3108804614273036028
:104160000D70002002E086F310880120BDE8F08188
:10417000F8B50746EFF3108472B60320FEF7EDF9A9
:10418000704DAE683068FFF74BFF3B461820724910
:104190004343CA5C022A1BD100213846FFF735FE93
:1041A0006648017806290ED1306867490A685305C8
:1041B00000F018F821F480618160C1684A07FCD5DD
:1041C00000F016F804E04078884218BFFFF763FE5D
:1041D000A9680A68FF2050620320FEF7B3F984F350
:1041E0001088F1BD02D5C1684A07FCD481687047C8
:1041F000C16801F0800161F49061C1604FF400205A
:10420000524908600320FEF7D6B92DE9F04704466D
:104210001825DFF82CA168430AEB00070E46397B0E
:10422000022904BF2046FFF7A3FFEFF3108972B6FF
:104230000320FEF792F9DFF80C81D8F80800FFF7A9
:10424000EEFE02203873BE607E603C4E3078062859
:1042500008D131787170347078754FF0FF3171602A
:10426000002052E0FFF7FCFDB9680918B9600AF1B7
:104270000803B96832786A439A58914228D3327851
:1042800003E00AF115036A439A5C0AF1150315FB72
:1042900002FC13F80C30062B06D00AF1080C6B4315
:1042A0005CF803309942ECD2114669430AF1150ECD
:1042B0001EF80130062B05D00AF1140C15FB03F58E
:1042C0000CF805407B753A750AF1150254541CE050
:1042D00031783378994215FB01F20FD00AF1140EB0
:1042E0000AF1150C1EF8023015FB03F50CF8054019
:1042F00079753B750AF114018C5403E00AF114033B
:1043000079759C54317871703470317872788A4242
:1043100002D0FFF7C0FD02E0B968081AB860FF20BC
:10432000D8F808100A6850620320FEF70BF989F3E9
:104330001088BDE8F08700002828004040160020C3
:104340003C12002004160020082800400C080058E9
:104350000008005880080058481200203E4900E03C
:104360003E4981B00A6802430A600968084000902B
:10437000009801B07047F0B585B0FEF78FF8FEF7F2
:104380008FF83748016841F480310160002600F061
:1043900068FE14216846FEF7CBF9002500240021B1
:1043A000304A02EBC102907988B11368B3F1904FA3
:1043B0000BD02D4FBB4205D02C4FBB4207D190886C
:1043C000044304E09288154301E090880643491CA9
:1043D0002629E5DB002102910122032101920391AC
:1043E000B0B288B100900120FFF7B8FF0120FFF7BD
:1043F000B7FF69464FF09040FEF742FC0022B1B291
:104400004FF09040FEF703FDA8B280B1009002206B
:10441000FFF7A4FF0220FFF7A3FF134E69463046C3
:10442000FEF72EFC0022A9B23046FEF7F0FCA0B247
:1044300080B100900420FFF791FF0420FFF790FF68
:104440000A4D69462846FEF71BFC0022A1B2284609
:10445000FEF7DDFC05B0F0BD4C0000584C010058E3
:1044600090080058886500080004004800080048CB
:1044700000B587B04FEA0D0009A11C22FCF76AFEC7
:1044800000F0DBF8684600F09FFA07B000BDFEF7C9
:10449000B0BB13460A460146002000F09BBD000059
:1044A0000000000000000000000000008865000817
:1044B000280003202C0003202604040000F081BE05
:1044C0006C486D49016001F12002426001F1300346
:1044D000836001F13C02026201F14403436201F195
:1044E0004C02C26001F15403036101F170024261A8
:1044F00001F1740383618031C16100F080BE38B581
:1045000004465E4D284600F0DDFE5A494868A16821
:104510000160E2685A49C2604160856000F08BFE2C
:1045200058482AE080B5534842681368012119723F
:10453000406800F086FE002002BD38B5514C4F4D5A
:1045400004E000F041F8009821688847284600F010
:10455000BCFE0028F5D031BD4A484168084738B54F
:104560000446494D284600F0ADFE4249C868A1689E
:104570000160456000F06AFE44482168016062689D
:104580004260002032BD80B53A48C26813681021ED
:104590001972C06800F060FE002002BD3548C16895
:1045A000C2683A4910680B68184738B5374C364D21
:1045B00004E000F009F8009861688847284600F098
:1045C00084FE0028F5D031BD6946284600F0A6BE1D
:1045D00038B504462E4D284600F074FE2D4800F0F4
:1045E00071FE24480069A1688160E268C2600561CB
:1045F000216801606268426021694161626982618B
:1046000031BD80B50146234800F072FEBDE802408E
:104610000FF2050000F029BE38B5164C1D4D06E01E
:10462000FFF7D2FF00992069006900F061FE28467B
:1046300000F04BFE0028F3D031BD10B5164C2046DB
:1046400000F040FE0B4948690460BDE8104000F0EE
:1046500020BE1CB5104C06E06946204600F05EFE08
:10466000009800F06CFE204600F02FFE0028F3D0EA
:1046700013BD000000000320AC090320480A0320FA
:104680009008032020160020500A0320281600203E
:10469000380A032018160020400A03202DE9F047AD
:1046A0005D4CDFF87891A5692840A0614FF0FF3A92
:1046B00021694FF0010833E0521C54F8320061695F
:1046C00019400142F8D0616904EBC20608407268E3
:1046D0001840024208BFC6F804A07768384000F0CE
:1046E0009FF808FA00F18F4377606062EFF3108162
:1046F00072B608FA00F22069D2431040206102200D
:1047000004EBC00353F8086C1640401E43F8086CD5
:10471000F6D181F31088606A59F820108847216922
:10472000A36960690140194205D0E069216A084225
:1047300008BF0022C1D0C4F824A000F001FEEFF3AE
:10474000108972B621696069A2690140114201BFF6
:10475000E069216A0842FEF756FE89F3108800F0EE
:10476000F0FDA561BDE8F08738B51446EFF310857C
:1047700072B600F055F8294941F8204085F31088B9
:1047800031BD30B5EFF3108272B6234B1C69044380
:104790001C6153F83150284343F8310082F31088EC
:1047A00030BDEFF3108172B61B4A536923EA000053
:1047B00005E0EFF3108172B6174A53691843506150
:1047C00081F310887047EFF3108172B6124AD369F3
:1047D0001843D061F4E7F8B50F4C666A256A37468E
:1047E00016F1010F0EBF0026012101FA06F6206224
:1047F00002E03046FEF708FE216AE0690842F8D080
:104800006762EFF3108172B6E269206A8243E26167
:1048100081F310882562F1BD441000205013002060
:1048200002460020110C090404BF1020120412F0EB
:104830007F4F04BF0830120206A312F0704F04BF6E
:10484000001D1201120FC0F11F00995C401AC0B286
:104850007047000004030202010101010000000092
:10486000000000007FB50C464D4D61684D4EE8617B
:104870002962284600F066FD2468746006F108008D
:1048800000F020FD012000F068F801203070296858
:1048900041B10FF2E9020FF2ED030092019302948D
:1048A000684688477FBD1FB53E4C04F1080000F004
:1048B0000CFD00BB2078F0B1694604F1080000F05F
:1048C0002DFD3748C16949B1009A029201238DF844
:1048D000043001A888479DF8040000E00120207002
:1048E000207818B10098FFF78CFE04E0009904F1DD
:1048F000080000F0F3FC04F1080000F0E6FC28B921
:10490000207818B104F10800FEF783FD1FBD2DE9E2
:10491000F04105460E4690461C46002000F01DF86A
:10492000204F7868A0F80950C672324641460C30D4
:10493000FCF710FC1A4A136900210020984748F23E
:10494000E800FEF76DFD79688A78D21C04F1080052
:10495000FCF700FCBDE8F041012010B51049124CF5
:10496000096A20B901B188470021217010BD0120DA
:10497000207011B1BDE81040084710BD0020FEF7BF
:104980004CBD000010B50146064C04F1080000F0D3
:10499000AFFC04F10800BDE81040FEF73ABD00008E
:1049A000A0150020F415002061160020FFF7AFFFCE
:1049B0009DF80E0005B000BDF8B500F10C026B4685
:1049C00025214FF66640F1E7F8B500F10C026B4681
:1049D0000F214FF66840E9E7F8B502466B460E2115
:1049E0004FF67540E2E7F0B51B491C4B0A681C49BD
:1049F000C2F30D0201EB82010C6822689A4205D1D4
:104A00006569A169E269E368246904E0256961696F
:104A1000A2696368A4682E0E06702F0C47702E0AD8
:104A2000867001724272C5F3031605F00F05057119
:104A30001A0C0D0EC6704571C2720E0C0D0A190EBD
:104A400081721B0A210E220C8671C571037341739A
:104A50008273C4730020F0BD3C400058B95646A98B
:104A6000000003200EB4C0B5024603A80021019047
:104A7000009101AB0121044878440C30FBF75EFB48
:104A800006BC5DF810FB00BFE526000038B594B009
:104A900007A8DFF8DC13DFF8DC533422FCF75AFBFD
:104AA0000FF23D400190009569460FF21D4000F065
:104AB00053FC01210220FFF784F9DFF8BC23002119
:104AC0000220FFF751FE07A8FFF776FF08B1FEF7B7
:104AD000D5F80DF116000021018000F013FDDFF87C
:104AE0009C03DFF89C53016811F1010F0ED042685E
:104AF0002974120A090A6974110A4068EA74A874D0
:104B0000120C29756A7505F1100406E00020FFF704
:104B10003FF9040008BF0FF28C4422460621002012
:104B200000F07DFD60790FF284422872217969726C
:104B3000E078A872A178E97260782873182021784B
:104B4000D04C6973102100F06AFD0FF27042102101
:104B5000082000F064FD1821012000F084FD00F021
:104B6000C6FD06A80DF11A010190009105AB0722C0
:104B70000021012000F06BFF0FF2E030BDF81A10A9
:104B800000900723BDF81400002200F06DFE0DF127
:104B9000160000900223BDF81810BDF81400002282
:104BA00000F062FE02220221002000F014FD01202C
:104BB000207000F009FF08212171012000216070A0
:104BC000E170102001216071A1700022AE48102117
:104BD0000823A060049203900292019100930122A5
:104BE00000230121012000F003FFA07808B100F0AC
:104BF00071FF00F0DBFF00204FF6FF7184F88000AA
:104C0000E18201200FF239220021FFF7ADFD0620DD
:104C100000F048FD01F008F80FF28D23002204F1A6
:104C200081010020FFF77CFA0FF28523002204F1B6
:104C300082010020FFF774FA00202083802293482D
:104C4000A02102804180012000F090F815B030BD15
:104C50002DE9F84306468B4C70788D4DDFF8348291
:104C6000DFF83492052804F1800704D03E2818D0DC
:104C7000FF285ED077E0B188E08A814205D100212B
:104C8000E18239704046FFF7EDFE012000F06EF83A
:104C9000012028702846E18A698000F0C4FF0022C4
:104CA00045E0F078012829D0032802D00C2803D051
:104CB00059E008F1280046E08EA0FFF7D3FE3079D6
:104CC00000280CBF08F1540008F17C00FFF7CAFE71
:104CD000E08A6A460DF1010100F04AFC60B900BFAC
:104CE0000FF22C20FFF7BEFE9DF800209DF801106A
:104CF0008CA0FFF7B7FE36E091A024E07878FFF7AC
:104D000037FAB6F8051008F1A400FFF7ABFE3878C3
:104D100004280CBF0620052038700021B6F80500D5
:104D200029706880E082284600F07DFF0122022180
:104D300016E0B6F80300042808D040F20741884284
:104D400011D108F1E800FFF78DFE0CE001220121EE
:104D50004846FEF75CF80520FEF71FFB0022012104
:104D60004846FEF754F80120BDE8F2832DE9F043F0
:104D7000012887B0044603D144480588478803E0EA
:104D80004FF4C8654FF47A67DFF8F890DFF80C81CC
:104D900009F180067078FFF7EBF9317871A0FFF721
:104DA00061FE022C10D13078012818BF02280BD1E7
:104DB00000F0A7FD010003D14046FFF753FE03E0DA
:104DC00008F12400FFF74EFE00200690059009F13F
:104DD000190204925FF0080299F818007BA1039071
:104DE000029101920023009334703A462946002034
:104DF00000F099FD22490E2000F058FE010013D169
:104E0000012C0AD108F14C00FFF72CFE70782449E0
:104E100007B0BDE8F043FFF7F8B908F1740007B038
:104E2000BDE8F043FFF71EBE012C0CBF08F1A00047
:104E300008F1D00007B0BDE8F043FFF713BE000053
:104E400010B5104C94F88000052810D000F059FDE2
:104E5000002184F8801028B949A0FFF703FE00BFA5
:104E600049A000E00F48BDE81040FFF7FBBD10BDB2
:104E7000C06F0008A0080320975300088075FF1F2B
:104E800008000020CC12002007B201005C160020B0
:104E900048160020B866000800040048CC670008E7
:104EA00046E001007870000800210120FFF769BC8E
:104EB000704700210220FFF764BC0120FFF783BC8C
:104EC0000120FFF788BC000010B50446616801F1BD
:104ED000080000F07BFE00B10120207010BD000032
:104EE00010B1012803D070470320FFF75ABC0320FC
:104EF000FFF75FBC4556545F5550444154455F50E1
:104F000048595F434F4D504C455445200A0000001E
:104F1000526561645F5048592073756363657373AC
:104F2000200A000050485920506172616D202054C1
:104F3000583D2025642C2052583D202564200A002D
:104F40005265616420636F6E66206E6F74207375A6
:104F5000636365657373200A000000004C525F5361
:104F600052563100466972737420696E6465782008
:104F7000696E202564207374617465200A00000046
:104F800020200D0A0D0000002A2A2053544F5020E3
:104F90004144564552544953494E47202A2A20201D
:104FA0000D0A0D00000000000000000012345678C9
:104FB0009ABCDEF0123456789ABCDEF0FEDCBA09F8
:104FC00087654321FEDCBA0987654321094C525F9E
:104FD0005352563138B5002488B90F4D0F482B6015
:104FE0000F4B0360FEF744FB012805D007D30328CD
:104FF00004D038BF022402E0012400E0032420464C
:1050000032BD00680649884204D1034A106800286E
:1050100018BF00477047000050160020AC11002058
:1050200000380140704770471047000038B5EFF373
:10503000108472B6274D6946281D00F012FF69469C
:10504000281D00F06EFF38B184F31088BDF8001001
:10505000214AFFF71EFA31BD0120287084F3108821
:1050600031BD80B5FFF713FA0221009100231948E2
:1050700000F124014FF48052001D00F0D6FD01BD67
:1050800000BFF8B514460026EFF3108510F1010FAC
:105090001ED001281CBF02284FF0FF3618D1BCB12A
:1050A000264672B60B4F012392B2381D00F0D2FD96
:1050B00000281CBF3978002908D000223A7085F3F7
:1050C0001088A1B2044AFFF7E4F901E085F31088E3
:1050D0003046F2BD200000202D500008C068084076
:1050E000884201D10120704700207047C069084004
:1050F000884201D1012070470020704710B5684CEC
:1051000002212046FFF7F2FF38B16068C0438107F3
:1051100003D5FFF74AFA022018E001212046FFF7E5
:10512000E5FF38B16068C043C10703D5FFF705FA52
:1051300001200BE008212046FFF7D8FF38B1606856
:10514000C043010703D5FFF784FA0820A06010BD13
:1051500010B5534C02212046FFF7C0FF58B96068D4
:10516000C043810307D5606840F400306060BDE84B
:105170001040FFF713BA08212046FFF7AFFF70B9C0
:105180006068C04301030AD56068464940F40020C6
:105190006060086880474FF40022A26010BD2021A3
:1051A0002046FFF79BFF58B96068C043810207D5CE
:1051B000606840F400106060BDE81040FFF7CCB9B3
:1051C00010BD394881B0016841F480110160006868
:1051D00000F48010009000983448016841F4007198
:1051E00001603348026842F40072026040BF20BF91
:1051F0003048016841F40041016001B0704780B55A
:105200002D48016841F480110160006800F48010AD
:10521000009000982248016841F001010160026895
:1052200042F4803202602C20FDF78CF9BDE8024088
:105230002D20FDF787B92148016849084900016020
:1052400070471F494FF48030086070471B48016861
:1052500021F002010160704718484FF400314160AD
:10526000026822F400320260704738B504460C4DE3
:1052700008212846FFF732FF30B10A480460696808
:1052800021F40021696031BDA0474FF40020A860DF
:1052900031BD0A48016821F0080101607047000033
:1052A000000C00584C16002050010058D40800583B
:1052B000200800580C04005850000058040C0058F6
:1052C000080C0058006040607047EFF3108172B620
:1052D000026882420CBF012000201CE0EFF3108224
:1052E00072B603680B60486001600868416023E0A3
:1052F000EFF3108272B6086043684B604160486803
:10530000016019E0EFF3108172B642680368136020
:1053100002684368536081F31088704710B5EFF35B
:10532000108472B602680A600068FFE7FFF7EAFFC0
:1053300084F3108810BD0B6082F3108870477047AB
:10534000704770470249034A01600261704700BF1D
:105350005F450008874500087FB50C46664D6168CB
:10536000664EE8612962284600F028FE246805F1AF
:105370002400FFF7A7FF746006F10800FFF7A2FF03
:1053800001203070296829B10FF23912009202947D
:10539000684688477FBD1FB5584C04F10800FFF7E9
:1053A00094FF00BB2078F0B1694604F10800FFF7D4
:1053B000B5FF5148C16949B1009A029201238DF8A5
:1053C000043001A888479DF8040000E00120207007
:1053D000207818B10098FFF714F904E0009904F15F
:1053E0000800FFF77BFF04F10800FFF76EFF28B904
:1053F000207818B104F10800FFF75BFD1FBD2DE90F
:10540000FC410546002000F053F86F882888A96801
:10541000EA68DFF8E480C7F3090747EA80273748DE
:105420004068C272BFB2A0F80970D2B20C30FBF76C
:1054300091FED8F81020002100209047002648F265
:10544000E800FFF73DFD12E0B4F80100B8420BD1CF
:10545000887AC21E6869D2B28242C8BF02462869F1
:105460006A61E11CFBF776FE207800B1012608F1A5
:105470002400FFF72AFF98B9694608F12400FFF7D6
:105480004DFF0098014600F10B04487A0F28DBD14C
:105490006088B84202D12A69217811706078E4E707
:1054A0003000CCD0012000F003F80020BDE8F681E8
:1054B0001149096A08B921B1084700291CBF012018
:1054C0000847704710B50146487A0F2818BF0E28C4
:1054D00007D10B48FFF70CFFBDE810400020FFF795
:1054E000ECBC064C04F10800FFF702FF04F10800D1
:1054F000BDE81040FFF7DDBC50150020E41500208A
:105500007415002000B587B000F024F800F01CF8F6
:10551000032100F009F800F00FF800284CBFFF202D
:105520009DF8000007B000BDADF80410ADF80610FE
:105530007047049207A9039101220692CDF814D076
:10554000002101A8FFF75BBF1822002101A800F08D
:1055500045BD014600208DF800007047092200215A
:10556000684600F03BBD1822002102A800F036BDBD
:1055700070B5C8B006460C4615460522FFF7EFFF8A
:10558000ADF82060FFF7EFFF302200F013F805229E
:1055900000F01AF8002848BFFF2009D49DF8000049
:1055A00030B99DF80300207000209DF80410297088
:1055B00048B070BDADF80A200821ADF808100222ED
:1055C000059208A9049170470792CDF818D00021E0
:1055D00002A8FFF714BF18B5C7B000F013F83122C6
:1055E00000F009F8FFF7A5FF00284CBFFF209DF849
:1055F000000048B010BDADF806200821ADF8041039
:105600000322704700248DF81C008DF8004007A885
:10561000417082700021182201A800F0DFBC18B58B
:105620000C46C7B0114600F050F88DF81D402246D8
:105630000DF11E0000F0CCFC00F054F83F21ADF855
:1056400004100C22ADF8062007A903910122A41C26
:105650000692049400F020F800284CBFFF209DF82B
:10566000000048B010BD00B5C7B000F034F80F22FC
:1056700000F007F800284CBFFF209DF8000047B05D
:1056800000BDADF806203F21ADF8041002220492BF
:1056900007A9039101220692CDF814D0002101A898
:1056A000FFF7ADBE00B5C7B000228DF80020ADF801
:1056B0001C0000F017F81822FFF7E3FF00284CBF8A
:1056C000FF209DF8000047B000BD00228DF80020AB
:1056D0008DF81C00704700238DF81C008DF81D10FC
:1056E0008DF800301822002101A800F077BC00B529
:1056F00087B000208DF8000000F0E3F840F20112BE
:1057000000F0F9F80122069200F0E2F800284CBF00
:10571000FF209DF8000007B000BD2DE9F8410446C8
:105720000128C7B0884616461F4608BF022003D08E
:1057300002280CBF102000200DF11D031D1800F0E1
:1057400035F8012C8DF81C4002D0022C1AD01BE039
:105750000224224641460DF11D0000F039FC2E7056
:105760006F7000F0AEF800F0A6F84FF4817200F010
:1057700017F8E41C0692049400F0AAF8002805D556
:10578000FF2009E01024E4E7972005E09DF80000E1
:1057900010B94E9800F063F8FFE748B0BDE8F0811B
:1057A000ADF8062007A903910322704703220021C8
:1057B000684600F013BC2DE9F64F0C460546012C57
:1057C000C7B09B4608BF022003D0022C0CBF10209C
:1057D00000200DF11F031E18FFF7E8FF012CADF8A4
:1057E0001C508DF81E4002D0022C2BD02CE002273A
:1057F000569C559DDDF85091DDF84CA1DDF84881AF
:1058000048993A4600F053F8A6F800B086F80280AE
:1058100086F803A086F804907571B47100F051F811
:1058200000F049F84FF4827207A9ADF80620039101
:105830000A3703220497069200F04AF8002805D59B
:10584000FF2009E01027D3E7972005E09DF800002E
:1058500010B9579800F003F849B0BDE8F08FBDF8D3
:10586000011001800020704778B5C7B01D464C9BE1
:1058700000F034F800268DF800608DF821502A469B
:1058800019460DF1220000F0A3FB00F01AF800F019
:1058900012F84FF4837200F028F8AD1D00F016F8EE
:1058A00000284CBFFF209DF8000049B060BD0DF1FD
:1058B0001F0000F08DBB3F21ADF8041070478DF83C
:1058C00000301822002101A800F088BB0692049540
:1058D000CDF814D0002101A8FFF791BDADF81C0050
:1058E000ADF81E108DF820207047ADF8062007A9EE
:1058F000039101227047ADF806203F21ADF8041056
:10590000704700B587B000F0F7F800F01AF981226F
:1059100000F032F900F007F900284CBFFF209DF895
:10592000000007B000BD2DE9F84DC7B09446DDF882
:1059300040E1519A559D569EDDF84CA1ADF81D10E1
:105940008DF81C004FF0000BADF81FC08DF8213012
:105950008DF822E000F02CF800F01FF824F8095F21
:10596000668000F0EEF83F20ADF8040083210120AE
:10597000ADF8061000F00AF800F0D7F800284CBF88
:10598000FF209DF8000048B0BDE8F08D07AA5744FD
:10599000069003920D370497704788F800A007AC73
:1059A0005499E419524608F10100544400F010BB28
:1059B0008DF82320174652998DF800B00DF1240878
:1059C00009A8B84400F004BB00B5C7B000F09BF8CC
:1059D00000F0B7F800F0AFF8852200F09AF800F078
:1059E000A3F800284CBFFF209DF8000047B000BD81
:1059F0002DE9F841C7B04FF0000800F022F84E9FA3
:105A00004F9E509D529C51988DF800800DF12301BE
:105A10008DF81F308DF820708DF821608DF82250A0
:105A200008608DF8274000F08CF8862200F0A4F87A
:105A30000C2200F075F800284CBFFF209DF80000F4
:105A40005EE08DF81C0007A8417082707047F8B5C1
:105A5000C8B005460E4617461C4600F022F808A8B6
:105A6000467087708DF8205000F081F88A2200F08F
:105A70006DF8032200F070F8002848BFFF200ED414
:105A80009DF8000058B94F994E98BDF8012022802A
:105A9000BDF803300380BDF805000880002049B040
:105AA000F0BD07220021684600F098BA18B5C7B0CB
:105AB00000F068F800F045F800F03DF88E2200F0A4
:105AC0006CF800F032F800284CBFFF209DF8000071
:105AD00048B010BD00B587B000F00EF800F031F806
